:020000040800F2
:10000000000400207F020008E9950008EB95000835
:10001000EF950008F3950008F79500080000000030
:10002000000000000000000000000000FB95000838
:10003000FD950008000000001B970008FF950008D0
:100040009F0200089F0200089F0200089F0200080C
:100050009F0200089F0200089F0200089F020008FC
:100060009F0200089F0200089F0200089F020008EC
:100070009F0200089F0200089F020008272D000829
:100080009F0200089F0200089F0200089F020008CC
:100090009F0200089F0200089F020008C533000865
:1000A0009F0200089F0200089F0200089F020008AC
:1000B00031360008A13900089F0200089F0200089D
:1000C0009F0200089F0200089F0200089F0200088C
:1000D0009F020008F12C00089F0200089F02000800
:1000E000FB3300089F0200089F0200089F020008DF
:1000F0009F0200089F0200089F0200089F0200085C
:100100009F0200089F0200089F0200089F0200084B
:100110009F0200089F0200089F0200089F0200083B
:100120009F0200089F0200089F0200089F0200082B
:10013000DFF80CD00BF0E8FE00480047C19500083E
:10014000502B00200CB5002001900090474800681B
:1001500040F480304549086000BF4448006800F41E
:10016000003000900198401C0190009818B9019847
:10017000B0F5A06FF1D13D48006810F4003F02D007
:100180000120009001E0002000900098012843D158
:100190003748006840F0100035490860084600689C
:1001A00020F0030008600846006840F00200086084
:1001B0002E4840682D494860084640684860084617
:1001C000406840F4806048600846406820F47C1035
:1001D00048600846406840F4E810486008460068F7
:1001E00040F08070086000BF2048006810F0007F79
:1001F000FAD01E48406820F003001C4948600846B9
:10020000406840F00200486000BF1848406800F0B5
:100210000C000828F9D101E000BFFEE70CBD10B5C5
:10022000FFF790FF10BD10B51048006840F00100C6
:100230000E490860084640680E4908400B4948606E
:10024000084600680C4908400849086008460068EC
:1002500020F4802008600846406820F4FE004860D2
:1002600000208860FFF7DBFF10BD00000010024097
:10027000002002400000FFF8FFFFF6FE704708482C
:100280008047084981F3088807480047FEE7FEE7F2
:10029000FEE7FEE7FEE7FEE7FEE7FEE7FEE7FEE736
:1002A0007D020008502B0020310100083149014334
:1002B000314A1160704770B5002100230F22C478C5
:1002C0000CB32D4C246804F4E064C4F5E064210A06
:1002D000C1F10403CA40447804FA03F1847814405D
:1002E00021430901254C0678A155047804F01F0527
:1002F0000124AC4005786D114FF0E02606EB850532
:10030000C5F8004109E0047804F01F050124AC4061
:100310001B4D0678761145F8264070BD194A0A40F3
:100320000243154B1B1F1A60704739B1124A121D48
:1003300012680243104B1B1D1A6006E00E4A121D84
:10034000126882430C4B1B1D1A607047042808D1A9
:100350004FF0E021096941F004014FF0E022116102
:1003600007E04FF0E021096921F004014FF0E0229D
:10037000116170470000FA050CED00E000E400E0B8
:1003800080E100E080FFFF1F016821F001010160B2
:100390000021016041608160C160864A811A9042FB
:1003A0005BD012DC844AA0EB020190423AD007DC19
:1003B000824941181BD0142922D028297AD128E05B
:1003C000142938D0282975D13EE0B1F56C7F5BD077
:1003D00006DCB1F5627F49D0B1F5677F6AD14CE0A8
:1003E000B1F5717F57D0B1F5767F63D15BE072498B
:1003F0004439496841F00F016F4A443A51605AE06C
:100400006D494439496841F0F0016B4A443A516002
:1004100051E069494439496841F47061664A443A97
:10042000516048E064494439496841F47041624A86
:10043000443A51603FE060494439496841F47021D1
:100440005D4A443A516036E05B494439496841F4B9
:100450007001594A443A51602DE05749443949687E
:1004600041F07061544A443A516024E054490968AB
:1004700041F00F01524A11601DE05149096841F0F5
:10048000F0014F4A116016E04D49096841F470616E
:100490004B4A11600FE04A49096841F47041484AEB
:1004A000116008E006E04649096841F47021444AB9
:1004B000116000E000BF00BF704710B50022026865
:1004C00047F6F0739A430C6A8B6823430C69234305
:1004D0004C6923438C692343CC6923434C6A2343EF
:1004E0008C6A23431A430260CB6843600B688360C5
:1004F0004B68C36010BD0021016041608160C16034
:10050000016141618161C161016241628162704743
:1005100021B1026842F00102026003E0026822F0A9
:100520000102026070471AB103680B43036002E0E6
:1005300003688B43036070470146486880B2704788
:1005400001460020002211F0805F03D01C4B1B1FCE
:100550001A6802E0184B443B1A680A4201D0012095
:1005600000E00020704710F0805F02D0144908605E
:1005700002E01149443948607047014600200022DA
:1005800011F0805F03D00E4B1B1F1A6802E00A4B6C
:10059000443B1A680A4201D0012000E00020704765
:1005A00010F0805F02D00649086002E00249443939
:1005B000486070478000024044000240F8FFFDBFE1
:1005C0000404024010B50446C549601A8C422FD07D
:1005D00009DCC448201810D0B0F5806F16D0B0F5F3
:1005E000006F4AD11BE0B0F5806F2AD0B0F5006FE4
:1005F00030D0B0F5406F40D135E00121042000F04B
:10060000F9FA0021042000F0F5FA37E00121082072
:1006100000F0F0FA0021082000F0ECFA2EE00121B1
:10062000102000F0E7FA0021102000F0E3FA25E0A6
:100630000121202000F0DEFA0021202000F0DAFA6B
:100640001CE00121402000F0D5FA0021402000F0FC
:10065000D1FA13E00121802000F0CCFA00218020A3
:1006600000F0C8FA0AE00121080200F0C3FA0021F4
:100670004FF4807000F0BEFA00E000BF00BF10BD74
:1006800010B50121084600F0B5FA0021012000F064
:10069000B1FA10BD2DE9F0410246002500260020E8
:1006A00000230024002791F803C00CF00F0591F8F7
:1006B00003C01CF0100F03D091F802C04CEA0505EE
:1006C00091F800C0BCF1000F31D0146800202BE07D
:1006D0004FF0010C0CFA00F3B1F800C00CEA03066D
:1006E0009E4220D183004FF00F0C0CFA03F7BC435D
:1006F00005FA03FC4CEA040491F803C0BCF1280F8E
:1007000006D14FF0010C0CFA00FCC2F814C00AE04C
:1007100091F803C0BCF1480F05D14FF0010C0CFA61
:1007200000FCC2F810C0401C0828D1D31460B1F8F6
:1007300000C0BCF1FF0F34DD546800202EE000F152
:10074000080C4FF0010808FA0CF3B1F800C00CEAED
:1007500003069E4221D183004FF00F0C0CFA03F7E1
:10076000BC4305FA03FC4CEA040491F803C0BCF155
:10077000280F05D100F1080C08FA0CF8C2F8148013
:1007800091F803C0BCF1480F07D100F1080C4FF0FD
:10079000010808FA0CF8C2F81080401C0828CED3D3
:1007A0005460BDE8F0814FF6FF7101800221817035
:1007B0000421C17070470246002093680B4201D0AB
:1007C000012000E0002070470146886880B2704731
:1007D00002460020D3680B4201D0012000E0002037
:1007E00070470146C86880B2704701617047416137
:1007F00070470AB1016100E041617047C160704714
:100800004FF480320A438261816182618269826928
:10081000704702460020344B18684FF6807318402A
:1008200040EA02100843304B186070472F49C861F6
:100830007047F0B50A4600230024002100252A4E07
:100840007168C0F3034583B200F44016B6F5401F4B
:1008500008D121F07061244E766826F07066224F30
:100860007E6012E000F48016B6F5801F06D10326E4
:1008700006FA05F4A14341F0706106E0460D360129
:1008800003FA06F6B14341F0706122B1460D36011C
:1008900003FA06F63143144E7160F0BD30B5002204
:1008A0008B071C0F0F2303FA04F20F4B08338C1035
:1008B00053F8243093430C4C08348D1044F8253001
:1008C00023468C1053F824308C07240F00FA04F4CC
:1008D0002343054C08348D1044F8253030BD00000A
:1008E0000014014000F8FEBF00000140000020425B
:1008F000DC48006840F00100DA49086008464068BA
:10090000D9490840D749486008460068D749084097
:10091000D44908600846006820F480200860084632
:10092000406820F4FE004860002088607047CD4990
:10093000096821F48031CB4A11601146096821F41D
:1009400080211160B0F5803F03D0B0F5802F0ED12B
:1009500006E0C449096841F48031C24A116007E0E9
:10096000C049096841F4A021BE4A116000E000BFFF
:1009700000BF704710B501460022002300204A1135
:10098000012A02D1B74C236806E0022A02D1B54CF5
:10099000236A01E0B34C636A01F01F020124944012
:1009A0001C4201D0012000E0002010BD38B500201D
:1009B00000900024002500BF3120FFF7DBFF054633
:1009C0000098401C00901DB90098B0F5A06FF3D1BD
:1009D0003120FFF7CFFF08B1012400E000242046BA
:1009E00038BD014600209F4A106820F0F80040EA18
:1009F000C100106070479E490860704702460020A1
:100A0000984B586820F47C1042EA01031843954B38
:100A10005860704796490866704701460020914A21
:100A2000506820F003000843506070478D484068CC
:100A300000F00C007047014600208A4A506820F000
:100A4000F00008435060704701460020854A506816
:100A500020F4E06008435060704701460020814A5E
:100A6000506820F4605040EAC1005060704729B1DE
:100A70007C4A527A02437B4B5A7204E0794A527A9A
:100A80008243784B5A7270477A4908607047014632
:100A90000020744A506820F440400843506070477A
:100AA0000021754A11706F4A82F82010012802D087
:100AB000042808D103E001216F4A117004E00521E8
:100AC0006D4A117000E000BF00BF70476B490860BD
:100AD00070476449096A0143624A11627047674975
:100AE00044390860704730B50021002200240023FB
:100AF0005C4D6D6805F00C0121B1042905D0082971
:100B000023D105E05E4D056022E05D4D05601FE0EC
:100B1000544D6D6805F47012022505EB9242514D5B
:100B20006D6805F480341CB9564D554305600BE0E3
:100B30004C4D6D6815F4003F03D0524D5543056090
:100B400002E04F4D5543056002E04D4D056000BF8A
:100B500000BF444D6D6805F0F00109094A4D6B5C1A
:100B60000568DD4045603F4D6D6805F4E061090AA8
:100B7000454D6B5C4568DD4085603A4D6D6805F418
:100B80006051C90A404D6B5C4568DD40C560354D1C
:100B90006D6805F44041890B3C4D6B5CC568B5FB45
:100BA000F3F5056130BD29B12E4A526902432D4B40
:100BB0005A6104E02B4A526982432A4B5A617047BA
:100BC00029B1284A92690243264B9A6104E0254ADA
:100BD00092698243234B9A61704729B1214AD269B5
:100BE0000243204BDA6104E01E4AD26982431D4B66
:100BF000DA61704729B11B4AD2680243194BDA60A7
:100C000004E0184AD2688243164BDA60704729B173
:100C1000144A12690243134B1A6104E0114A126923
:100C20008243104B1A61704714494039086070477D
:100C30000F49C86470470B49C87170470948406A3A
:100C400040F0807007494862704701460020054A1D
:100C500092680A4201D0012000E00020704701495B
:100C600088727047001002400000FFF8FFFFF6FE98
:100C700000004242D800424220100240800442421A
:100C800000127A0000093D00000000201000002042
:100C900010B50446BD4820180FD0B0F5806F16D0AF
:100CA000B0F5784F1DD101210803FFF7A3FF002104
:100CB0004FF48050FFF79EFF14E001218803FFF7F7
:100CC000A6FF00214FF48040FFF7A1FF0AE00121B9
:100CD000C803FFF79CFF00214FF40040FFF797FF88
:100CE00000E000BF00BF10BD10B50022028802F472
:100CF00041520B884C8823438C882343CC88234360
:100D00000C8923434C8923438C892343CC89234377
:100D10001A430280838B4FF2FF74234083830B8A34
:100D2000038210BD2DE9F04786B005460C464FF012
:100D3000000902274FF000084FF0010A0026A88B97
:100D40004FF240010840A88302202884B5F81C9087
:100D50002089022801D100BF31E0A08810B94FF0EE
:100D6000010A01E04FF0020A01A8FFF7BCFEE0888B
:100D7000B0F5007F0AD1019800EB80004000218986
:100D80000902B0FBF1F0401D86B20BE04FEA4A10B9
:100D900021894843019901EB81014900B1FBF0F041
:100DA000401D86B20A20B6FBF0F606F00108A6EB5D
:100DB0000800C0F34F074FF6FF7000EA0828022F23
:100DC00001DBFF2F02DD02274FF0000847EA080091
:100DD000E18808432884208840F400606188084343
:100DE000A18808436189084340EA0909A5F81C90D5
:100DF00006B0BDE8F0870021018041808180C1807C
:100E0000018141818181C1810721018270470021D7
:100E1000018041808180C1800221018100214181C6
:100E2000704721B1028842F04002028004E002884B
:100E30004FF6BF731A400280704721B1828B42F493
:100E40008062828304E0828B4FF6FF331A408283F4
:100E5000704730B5002400230C110125A540ABB22A
:100E60001AB185881D43858002E085889D43858071
:100E700030BD1AB183880B43838002E083888B43A3
:100E80008380704781817047014688897047A1F54A
:100E90007E42FF3A04D0028842F48072028004E06D
:100EA00002884FF6FF631A400280704721B18288A2
:100EB00042F00402828004E082884FF6FB731A40FD
:100EC0008280704702884FF2FF731A4002800288C6
:100ED0000A4302807047018841F4805101807047C5
:100EE00021B1028842F40052028004E002884DF6EB
:100EF000FF731A400280704702460020012901D08A
:100F0000108B00E0908A70470146088A7047B1F55F
:100F1000804F04D1028842F48042028004E00288BB
:100F20004BF6FF731A400280704702460020138977
:100F30000B4201D0012000E000207047CA4302812B
:100F40007047F0B50246002000240023002501F080
:100F50000F070126BE40B4B20B1101269E40B3B26A
:100F6000968806EA03051689264202D00DB10120B3
:100F700000E00020F0BD10B5002201F00F040123B5
:100F8000A3409AB2D343038110BD000000C8FFBF45
:100F900010B50446D749601A8C422BD006DCD648DF
:100FA000201813D0B0F5806F38D119E0B0F5806FFC
:100FB0002AD0B0F56C4F31D101218803FFF71AFE1A
:100FC00000214FF48040FFF715FE28E0012148047E
:100FD000FFF71DFE00214FF40030FFF718FE1EE062
:100FE00001218804FFF713FE00214FF48020FFF752
:100FF0000EFE14E00121C804FFF709FE00214FF4A2
:101000000020FFF704FE0AE001210805FFF7FFFDBD
:1010100000214FF48010FFF7FAFD00E000BF00BF91
:1010200010BD2DE9F04786B005460E460024A246C5
:1010300000BF00BF00272F462C8A4CF6FF700440EB
:10104000F08804432C82AC894EF6F3100440B0883B
:1010500031890843718908430443AC81AC8A4FF657
:10106000FF400440B0890443AC8201A8FFF73BFD78
:10107000A248874202D1DDF810A001E0DDF80CA003
:101080000AEBCA0000EB0A1031688900B0FBF1F8E6
:101090006420B8FBF0F004012009642101FB1089F1
:1010A000322000EB0910B0FBF1F000F00F00044318
:1010B0002C8106B0BDE8F0874FF416510160002185
:1010C0008180C18001810C21418100218181704793
:1010D00010B502460020108A4FF2FF0318400B881B
:1010E0004C8823438C882343CC88234318431082A5
:1010F00010BD0021018041808180C180704721B1F5
:10110000828942F40052828104E082894DF6FF73A5
:101110001A4082817047F0B503460024002600255E
:1011200000201846C1F3421401F01F06012707FAF8
:1011300006F5012C01D10C3004E0022C01D1103055
:1011400000E014301AB107682F43076002E0076817
:10115000AF430760F0BD1AB1838A0B43838202E07C
:10116000838A8B4383827047028A4FF6F0731A405A
:101170000282028A0A430282704782894FF2FF7319
:101180001A40828182890A438281704721B1828913
:1011900042F00202828104E082894FF6FD731A4018
:1011A00082817047028A4FF6DF731A400282028AF8
:1011B0000A430282704721B1028A42F480420282CD
:1011C00004E0028A4BF6FF731A4002827047C1F3B3
:1011D00008028280704701468888C0F30800704783
:1011E000818941F0010181817047028BD2B2028373
:1011F000028B42EA012202837047028B02F47F4293
:101200000283028B0A430283704721B1828A42F033
:101210002002828204E0828A4FF6DF731A408282C3
:10122000704721B1828A42F01002828204E0828AF1
:101230004FF6EF731A408282704721B1828A42F0E2
:101240000802828204E0828A4FF6F7731A40828293
:101250007047828A4FF6FB731A408282828A0A4361
:101260008282704721B1828A42F00202828204E0C7
:10127000828A4FF6FD731A40828270470246002030
:1012800013880B4201D0012000E000207047CA43C0
:101290000280704770B502460B46002400210025ED
:1012A0000020C3F3421503F01F01012606FA01F1E5
:1012B000012D02D19689314006E0022D02D1168A15
:1012C000314001E0968A31401C12012606FA04F4EE
:1012D0001688344011B10CB1012000E0002070BD2F
:1012E00010B5002200230A1201249440A3B2DC436B
:1012F000048010BD004C004000BCFFBF003801401E
:1013000010B50446F348201803D0B0F5806F14D10F
:1013100009E001214805FFF77AFC00214FF4001095
:10132000FFF775FC0AE001218805FFF770FC00213A
:101330004FF48000FFF76BFC00E000BF00BF10BD62
:101340002DE9F04385B004460D460026B14604273A
:10135000DFF88483A6884FF6C07006406846FFF722
:10136000C2FBDDF80880DD48B8FBF0F01FFA80F919
:1013700046EA0906A68020884FF6FE7108402080C4
:101380000026D749E86888420CD8E8684000B8FBD6
:10139000F0F087B2042F00DA04273E4309F1010080
:1013A000208427E06888A0F53F41FF3906D1E8682E
:1013B00000EB4000B8FBF0F087B209E0E86800EB12
:1013C000C00101EB0010B8FBF0F087B247F4804792
:1013D0003805000D01D147F0010747F400400643EE
:1013E0004FF4967009FB00F04FF47A7190FBF1F026
:1013F000401C2084A683208840F00100208026889D
:101400004FF6F53006402888E988084306432680D1
:101410002889A9880843208105B0BDE8F083002110
:1014200001804BF6FF71418000218180C1804FF423
:101430008041018141F28831C160704721B1028849
:1014400042F00102028004E002884FF6FE731A4067
:101450000280704721B1828842F40062828004E0F9
:1014600082884FF2FF731A408280704721B18288D0
:1014700042F48052828004E082884EF6FF731A4064
:101480008280704721B1028842F48072028004E0B9
:1014900002884FF6FF631A400280704721B102882C
:1014A00042F40072028004E002884FF6FF531A40B3
:1014B0000280704721B1028842F48062028004E019
:1014C00002884FF6FF331A40028070470A46002117
:1014D00081894FF60173194002F0FE03194381819F
:1014E000704721B1828942F00102828104E0828941
:1014F0004FF6FE731A408281704721B1028842F094
:101500004002028004E002884FF6BF731A40028056
:1015100070471AB183880B43838002E083888B4332
:1015200083807047018270470146088AC0B27047C5
:1015300012B141F0010102E04FF6FE731940018241
:1015400070470246505A704721B1028842F4004267
:10155000028003E00288C2F30E0202807047B1F5F8
:10156000005F04D1028842F40052028004E0028845
:101570004DF6FF731A400280704721B1028842F491
:101580008052028004E002884EF6FF731A40028007
:101590007047B1F5006F04D1028842F40062028006
:1015A00004E002884FF2FF731A400280704721B1B5
:1015B000028842F02002028004E002884FF6DF73C6
:1015C0001A40028070470146088B0012704721B113
:1015D000028842F01002028004E002884FF6EF73A6
:1015E0001A400280704721B9028842F080020280CE
:1015F00004E002884FF67F731A4002807047B1F50D
:10160000804F05D0828B4BF6FF731A40828303E034
:10161000828B42F480428283704710B501460020DD
:10162000002300228B8A0A8B120443EA020424F06E
:101630007F4010BD70B50246002400250023002025
:10164000958A138B1B0445EA030626F07F448C42DF
:1016500001D1012000E0002070BD0CB50246002041
:1016600000230193009300920B0F019321F07F411F
:10167000019B1BB1009B1433009303E0090C009BFA
:1016800018330093009B1B680B4201D0012000E03F
:1016900000200CBD002221F07F42D343838270479B
:1016A00030B5024600200023948801F0E06504EA8A
:1016B000154321F07F41948A0C4202D00BB10120E6
:1016C00000E0002030BD002221F07F42D34383821E
:1016D0007047000000ACFFBF00127A0040420F00CC
:1016E000A0860100002046490860091D0860091D08
:1016F0000860091D0860434841491431086070477B
:10170000817900293ED03E490968026891433C4AEC
:101710001160111D096802689143394A121D116058
:101720000179121F8958026811430279344BD15054
:1017300033490831096802689143314A083211601F
:10174000111D0968026891432D4A0C3211604179DC
:1017500010290ED1111F096802681143284A083266
:101760001160111D096802681143254A0C3211608D
:1017700010E04179224A8958026811434279204B8E
:10178000D15007E001791E4A8958026891430279D5
:101790001B4BD15070470021016001710C21417138
:1017A0000021817170471649103109680143144ABC
:1017B00010321160704701460020114A143212683D
:1017C0000A4201D0012000E0002070470C4914318A
:1017D00008607047014600200022094B1B6803EA9D
:1017E0000102074B14331B680B4202D00AB10120DF
:1017F00000E0002070470249143108607047000083
:1018000000040140FFFF070010B50446F749601AC5
:101810008C4245D00CDCB4F1804F1DD0F448201828
:1018200023D0B0F5806F29D0B0F5006F54D12EE0F1
:10183000B0F5806F3DD0B0F58E3F03D0B0F5923F4C
:101840004AD13FE00121C802FFF7D4F900214FF44B
:101850000060FFF7CFF940E001210846FFF7D7F914
:1018600000210120FFF7D3F937E001210220FFF723
:10187000CEF900210220FFF7CAF92EE00121042051
:10188000FFF7C5F900210420FFF7C1F925E0012188
:101890000820FFF7BCF900210820FFF7B8F91CE089
:1018A00001211020FFF7B3F900211020FFF7AFF955
:1018B00013E001212020FFF7AAF900212020FFF7E3
:1018C000A6F90AE001214803FFF794F900214FF43B
:1018D0000050FFF78FF900E000BF00BF10BD028885
:1018E00002F08F020280CA884B881A4303881A4389
:1018F00002808A8882850A880285BE4A904202D088
:10190000BD4A904201D10A7A028601228282704742
:1019100070B5002400220023058C4FF6FE7635407A
:101920000584028C8388048B4FF68F752C400D88BC
:101930002C43751E2A400D892A434D882A43CD88A1
:101940008586AC4DA84202D0AB4DA84213D14FF6CC
:10195000F7752A404D892A434FF6FB752A408D883A
:101960002A4347F6FF652B4047F6FF552B408D89EC
:101970002B43CD892B4383800483028470BD70B5D3
:10198000002400220023058C4FF6EF7635400584B5
:10199000028C8388048B48F6FF752C400D884FF627
:1019A000FF7606EA05252C434FF6DF752A400D89A0
:1019B00006EA05152A434D8806EA05152A43CD880F
:1019C00005878C4DA84202D08B4DA8421DD14FF601
:1019D0007F752A404D894FF6FF7606EA05152A43A2
:1019E0004FF6BF752A408D8806EA05152A4347F64B
:1019F000FF352B4047F2FF752B408D8906EA8505A0
:101A00002B43CD8906EA85052B438380048302841A
:101A100070BD70B5002400220023058C4FF6FF66D0
:101A200035400584028C8388848B4FF68F752C405B
:101A30000D882C434FF6FF552A400D894FF6FF764F
:101A400006EA05252A434D8806EA05252A43CD885E
:101A50008587684DA84202D0674DA8421DD14FF23C
:101A6000FF752A404D894FF6FF7606EA05252A4381
:101A70004FF6FF352A408D8806EA05252A4346F6AB
:101A8000FF752B4045F6FF752B408D8906EA05153D
:101A90002B43CD8906EA05152B438380848302847A
:101AA00070BD70B5002400220023058C4EF6FF7631
:101AB00035400584028C8388848B48F6FF752C4062
:101AC0000D884FF6FF7606EA05252C434DF6FF7587
:101AD0002A400D8906EA05352A434D8806EA053570
:101AE0002A43CD88A0F84050424DA84202D0424D32
:101AF000A84207D1C3F30D038D894FF6FF7606EA9E
:101B000085152B4383808483028470BD828B4FF2C2
:101B1000FF331A408283828B4FF6FF7303EA01235F
:101B20001A4382837047F0B50C4615460021002207
:101B30000026078C4EF6FF7C07EA0C070784818B92
:101B4000028C4FF6FF7707EA043640F6FF4739402C
:101B50004FF6FF7707EA05274FF6FF7C0CEA033CB8
:101B600047EA0C0739434DF6FF773A4046F4805771
:101B70003A4381830284F0BD828B4FF6F3731A409F
:101B80008283828B0A4382837047F0B50C461546E8
:101B9000002100220026078C4FF6FF6C07EA0C0795
:101BA0000784818B028C4FF6FF7707EA04264FF6F5
:101BB0000C7739404FF6FF7707EA03172F43394375
:101BC0004FF6FF573A4046F480773A4381830284C8
:101BD000F0BD028B4FF2FF331A400283028B4FF6A7
:101BE000FF7303EA01231A43028370470010004089
:101BF00000FCFFBF002C014000340140F0B50C4652
:101C00001546002100220026078C4FF6EF7C07EADC
:101C10000C070784018B028C4FF6FF7707EA041646
:101C200040F6FF4739404FF6FF7707EA033739435D
:101C30004FF6FF7707EA052739434FF6DF773A403B
:101C400046F010073A4301830284F0BD028B4FF641
:101C5000F3731A400283028B0A4302837047F0B584
:101C60000C46154600210022068C4FF6FE773E40BA
:101C70000684018B028C4FF60C7631407E1C06EAFE
:101C800003162E4331437E1E324044F00106324398
:101C900001830284F0BD70B505460C46208850B91A
:101CA0002389A28861882846FFF7D9FFE188284662
:101CB000FFF7CCFF25E0208804280AD12389A288D9
:101CC00061882846FFF79AFFE1882846FFF781FFE1
:101CD00017E0208808280AD12389A288618828462D
:101CE000FFF753FFE1882846FFF746FF09E0238905
:101CF000A28861882846FFF716FFE1882846FFF78B
:101D000005FF70BD2DE9F04105460C460026012770
:101D1000608808B9022600E00026A088012801D1C9
:101D2000022700E001272088A0B92389A2886188C2
:101D30002846FFF794FFE1882846FFF787FF2389AD
:101D40003A4631462846FFF759FFE1882846FFF713
:101D500040FF13E02389A28861882846FFF74EFFE1
:101D6000E1882846FFF735FF23893A463146284661
:101D7000FFF775FFE1882846FFF768FFBDE8F081AF
:101D80000A884B881A438B881A43CB881A430B89DD
:101D90001A434B891A438B891A43A0F84420704791
:101DA0004FF6FF71818000210180C1804180017266
:101DB00070470021018041808180C1800181418183
:101DC0008181C18170470021018041800121818092
:101DD0000021C18001817047002101804180818004
:101DE000C180018141818181704721B1028842F027
:101DF0000102028004E0028840F2FE331A400280B1
:101E0000704731B1B0F8442042F40042A0F84420B9
:101E100005E0B0F84420C2F30E02A0F84420704759
:101E20001AB183890B43838102E083898B438381C9
:101E300070478182704741EA0203A0F8483070473A
:101E40001AB183890B43838102E083898B438381A9
:101E5000704701894FF6F8721140018170470A46B8
:101E6000002101894FF68F7319401143018170479A
:101E700030B504460D4629462046FFF7F0FF20897D
:101E800040F00700208130BD2DE9F04104460D46A9
:101E900016461F46602D06D13B460122314620469C
:101EA000FFF7ACFE05E03B46012231462046FFF736
:101EB000D6FE29462046FFF7D2FF208940F00700D2
:101EC0002081BDE8F08170B50C4600210189C9B2BE
:101ED00044EA02054FF6FF7606EA03263543294316
:101EE000018170BD2DE9F04105460E461746984622
:101EF000002443463A4631462846FFF7E4FF2C8942
:101F00004FF6F870044044F007044FF68F70044019
:101F100044F070042C81BDE8F081F0B504460D4614
:101F200016461F463B46324629462046FFF7CBFF62
:101F3000208940F480402081F0BD01858282704775
:101F40000A460021018840F28F3319401143018075
:101F50007047F0B50C4615461E46002100220023AE
:101F60000189028B038C4FF6F877394021434FF6F5
:101F7000FC473A4040F201173A434FF6DD773B40C9
:101F80004FF6FF7707EA06172F433B430181028391
:101F90000384F0BD0A460021018B4FF68F73194070
:101FA0001143018370470A460021018B48F6FF73F5
:101FB00019404FF6FF7303EA022319430183704768
:101FC0000A460021818B4FF68F731940114381839C
:101FD00070470A460021818B48F6FF7319404FF67F
:101FE000FF7303EA022319438183704721B10288FA
:101FF00042F08002028004E0028840F27F331A40FF
:102000000280704721B1828842F00402828004E09D
:1020100082884FF6FB731A408280704721B1828814
:1020200042F00802828004E082884FF6F7731A407B
:102030008280704721B1828842F00102828004E0F0
:1020400082884FF6FE731A40828070470A4600214C
:10205000018B4FF6F77319401143018370470A460D
:102060000021018B4FF2FF7319404FF6FF7303EA13
:1020700002231943018370470A460021818B4FF6E2
:10208000F77319401143818370470A460021818B01
:102090004FF2FF7319404FF6FF7303EA022319430F
:1020A000818370470A460021018B4FF6FB7319406C
:1020B0001143018370470A460021018B4FF6FF331D
:1020C00019404FF6FF7303EA022319430183704757
:1020D0000A460021818B4FF6FB731940114381831F
:1020E00070470A460021818B4FF6FF3319404FF6A7
:1020F000FF7303EA02231943818370470A460021D4
:10210000018B4FF67F7319401143018370470A46D4
:102110000021018BC1F30E014FF6FF7303EA022386
:102120001943018370470A460021818B4FF67F7364
:1021300019401143818370470A460021818BC1F306
:102140000E014FF6FF7303EA0223194381837047A0
:102150000A460021018C4FF6FD731940114301849A
:1021600070470A460021018C4FF6F773194011435E
:10217000018470470A460021018C4FF6DF73194035
:102180004FF6FF7303EA02131943018470470A46AE
:102190000021018C4FF67F7319404FF6FF7303EA5D
:1021A00002131943018470470A460021018C4FF63F
:1021B000FF5319404FF6FF7303EA022319430184CA
:1021C00070470A460021018C4FF2FF7319404FF609
:1021D000FF7303EA02231943018470470A46002172
:1021E000018C4DF6FF7319404FF6FF7303EA02337B
:1021F00019430184704710B5038C01248C40A3431C
:102200000384038C02FA01F4A4B22343038410BDB7
:1022100010B5038C04248C40A3430384038C02FA7E
:1022200001F4A4B22343038410BD30B5038C012410
:102230008C40A343038409B1082918D100F1180385
:1022400003EB61031B684FF68F74234000F1180401
:1022500004EB6104236000F1180303EB61031B68C6
:10226000134300F1180404EB610423601FE00B1F0B
:10227000C3F34E0400F118031B5948F6FF742340C2
:102280000C1FC4F34E0500F1180463510B1FC3F378
:102290004E0400F118031B594FF6FF7404EA0224A0
:1022A00023430C1FC4F34E0500F11804635130BDE5
:1022B00021B1028842F00202028004E0028840F26A
:1022C000FD331A400280704721B1028842F00402B7
:1022D000028004E0028840F2FB331A40028070471B
:1022E00021B1828842F08002828004E082884FF629
:1022F0007F731A4082807047028840F2F7331A4099
:10230000028002880A430280704782884FF68F73EA
:102310001A40828082880A438280704702894FF681
:10232000F8731A40028102890A43028170470289C8
:102330004FF67F731A40028102890A430281704777
:102340008184704781857047818670470187704717
:1023500081877047A0F8401070470288D2B202808F
:1023600002880A43028070470146888E7047014602
:10237000088F70470146888F70470146B1F84000CA
:1023800070470146888C70470146088D70470246A9
:102390000020138A0B4201D0012000E0002070478A
:1023A000CA430282704730B5024600200023002451
:1023B000158A05EA0103958905EA010413B10CB1F8
:1023C000012000E0002030BDCA43028270470000B7
:1023D00030B53F4800684FF47A72B0FBF2F1B1F1CA
:1023E000807F00D31DE021F07F40401E4FF0E022AF
:1023F000506150170F22002807DA13071D0E354BC6
:1024000000F00F04241F1D5503E013071C0E324B70
:102410001C5400BF00204FF0E022906107201061A3
:1024200000BF30BD10B5FDF7FEFEFFF7D1FF02F093
:102430001BFA02212948FEF7DAF904212748FEF7A2
:10244000D6F908212548FEF7D2F94FF480512448E7
:10245000FEF7CDF94FF4FA6000F0F1FE02211F48BB
:10246000FEF7C3F904211D48FEF7BFF908211B48F8
:10247000FEF7BBF94FF480511948FEF7B6F94FF457
:10248000E13000F0B0FC4FF4E13000F0B0FB01F0BF
:1024900079FB00F0B1F900F0E7FF01F051F800F02E
:1024A000F3FF01F001F82821012001F076FD00F092
:1024B000E9FE00F01BFF00F04FFF00F054FB00F0BE
:1024C000A9FF00F0BCFF00F079FC00F037FB10BD65
:1024D0002CDB000818ED00E000E400E000100140F3
:1024E0000008014008B501210920FEF769FB012120
:1024F0000220FEF79EF94FF44070ADF80000032073
:102500008DF802001C208DF803006946BD48FEF7D7
:10251000C1F808BD1FB501214805FEF75EFBBA48AA
:10252000FEF7EEFE0020ADF800004BF6FF70ADF8B0
:1025300002000020ADF804004FF48060ADF8060002
:102540000001ADF80800B14803900121AE48FEF744
:1025500075FF6946AC48FEF7F3FE1FBD70B5044633
:102560000E4615460121A848FEF78CFF00BFA8497A
:10257000A548FFF75FF80028F9D000222146A248BD
:10258000FEF7D6FF00BFA3499F48FFF753F8002886
:10259000F9D031469C48FEF7C5FF00BF9D49891C14
:1025A0009948FFF747F80028F8D029469648FEF7E3
:1025B000B9FF00BF9749891C9348FFF73BF80028F3
:1025C000F8D001219048FEF769FF384670BD2DE92B
:1025D000F04105460C4616461F4601218A48FEF783
:1025E00051FF00BF8A498848FFF724F80028F9D036
:1025F000002229468448FEF79BFF00BF8549824898
:10260000FFF718F80028F9D031467F48FEF78AFF17
:1026100000BF8049891C7C48FFF70CF80028F8D0DF
:102620000CE021787848FEF77DFF641C00BF7949F3
:10263000891C7548FEF7FEFF0028F8D03800A7F186
:1026400001018FB2EDD101216F48FEF727FFBDE8F0
:10265000F08170B504460D46552600BF4FF4003199
:102660006948FEF7FAFF0028F8D101216648FEF715
:1026700009FF00BF66496448FEF7DCFF0028F9D077
:10268000002221466048FEF753FF00BF61495E48C3
:10269000FEF7D0FF0028F9D001215B48FEF7CEFEFF
:1026A00029465948FEF73EFF00BF5A49891C564843
:1026B000FEF7C0FF0028F8D001215348FEF7E2FEE4
:1026C00000BF53495048FEF7B5FF0028F9D001225A
:1026D00021464D48FEF72CFF00BF4D49491C4A4892
:1026E000FEF7A8FF0028F8D000214748FEF7E2FED9
:1026F00001214548FEF7D2FE00BF45493F3142481F
:10270000FEF798FF0028F8D03F48FEF70DFF064679
:1027100001213D48FEF7CEFE304670BD2DE9F04167
:1027200006460D4617461C4600BF4FF4003136489A
:10273000FEF793FF0028F8D101213348FEF7A2FEEF
:1027400000BF33493048FEF775FF0028F9D000225A
:1027500031462D48FEF7ECFE00BF2E492A48FEF711
:1027600069FF0028F9D001212748FEF767FE3946A6
:102770002548FEF7D7FE00BF2649891C2248FEF7F0
:1027800059FF0028F8D001211F48FEF77BFE00BF4B
:102790001F491D48FEF74EFF0028F9D0012231469F
:1027A0001948FEF7C5FE00BF1949491C1648FEF737
:1027B00041FF0028F8D016E0012C07D10021124873
:1027C000FEF778FE01211048FEF768FE10493F3100
:1027D0000D48FEF72FFF30B10B48FEF7A5FE28701D
:1027E0006D1C601E84B2002CE6D101210648FEF764
:1027F00061FE0020BDE8F08110B5FFF773FEFFF722
:1028000089FE10BD000C014000540040801A0600F3
:10281000010003008200070000B587B001210420F9
:10282000FEF7CEF901210803FEF7CAF9E020ADF862
:10283000040018208DF8070003208DF8060001A978
:10284000BA48FDF727FF2021B848FDF7CEFF402109
:10285000B648FDF7CAFF8021B448FDF7C6FF002047
:10286000ADF808004FF48270ADF80A000020ADF812
:102870000C00ADF80E00ADF810004FF40070ADF88C
:1028800012001020ADF814000020ADF8160007204B
:10289000ADF8180002A9A648FEF726FA0121A448BF
:1028A000FEF7BFFA07B000BD10B504460021A048EE
:1028B000FEF7B7FA9E4800884FF6C77108409C495A
:1028C00008801CB90846008808803BE0012C06D12E
:1028D0009748008840F008009549088032E0022CB3
:1028E00006D19348008840F010009149088029E003
:1028F000032C06D18E48008840F018008C490880CF
:1029000020E0042C06D18A48008840F02000884945
:10291000088017E0052C06D18548008840F0280083
:10292000834908800EE0062C06D18148008840F0DB
:1029300030007F49088005E07D48008840F038007D
:102940007B49088001217A48FEF76BFA10BD70B50B
:102950000546002405E0601CC4B2C82C01DD00203F
:1029600070BD02217248FEF7E0FA0028F3D0294634
:102970006F48FEF787FA002405E0601CC4B2C82C3B
:1029800001DD0020ECE701216948FEF7CEFA0028BE
:10299000F3D06748FEF778FAC0B2E1E700B587B038
:1029A00001210820FEF70CF901218803FEF715F933
:1029B0004FF46040ADF8040018208DF807000320A4
:1029C0008DF8060001A95B48FDF764FE4FF4004155
:1029D0005848FDF70AFF4FF480415648FDF705FFC0
:1029E0004FF400515348FDF700FF0020ADF80800F8
:1029F0004FF48270ADF80A000020ADF80C00022000
:102A0000ADF80E000120ADF810004002ADF8120044
:102A10002020ADF814000020ADF816000720ADF816
:102A2000180002A94448FEF75FF901214248FEF769
:102A3000F8F907B000BD10B5044600213E48FEF786
:102A4000F0F93D4800884FF6C77108403A490880C0
:102A50001CB90846008808803BE0012C06D13648A6
:102A6000008840F008003449088032E0022C06D18A
:102A70003148008840F010002F49088029E0032CDD
:102A800006D12D48008840F018002B49088020E02E
:102A9000042C06D12848008840F0200026490880F0
:102AA00017E0052C06D12448008840F02800224970
:102AB00008800EE0062C06D11F48008840F0300048
:102AC0001D49088005E01C48008840F038001A497C
:102AD000088001211848FEF7A4F910BD70B505461D
:102AE000002405E0601CC4B2C82C01DD002070BDCC
:102AF00002211148FEF719FA0028F3D029460E48A2
:102B0000FEF7C0F9002405E0601CC4B2C82C01DD4A
:102B10000020ECE701210848FEF707FA0028F3D06F
:102B20000548FEF7B1F9C0B2E1E700000008014036
:102B300000300140000C01400038004008B54FF45F
:102B4000E060FDF7B3FB25208DF8000000208DF834
:102B5000010005208DF8020001208DF80300684671
:102B6000FDF7A9FB08BD08B54FF4E060FDF79EFB3B
:102B70000F208DF8000000208DF8010005208DF851
:102B8000020001208DF803006846FDF794FB08BDA4
:102B900010B501210846FEF706F8FE48FDF7F4FBE4
:102BA000FD48FE490860FE484860002088600C200F
:102BB000C860002008618020486100208861C861E9
:102BC00008624FF40050486200208862F148FDF727
:102BD00074FC01220221EF48FDF7A5FC4FF4003000
:102BE000FDF7DEFC0121EB48FDF792FC10BD10B5AE
:102BF00086B00446012144F20900FDF7E1FF0121FE
:102C00000420FDF716FE4020ADF8140018208DF8C2
:102C1000170003208DF8160005A9E248FDF73AFDDC
:102C20008020ADF8140004208DF8170005A9DD48B8
:102C3000FDF730FDFFF7ACFF01940020ADF8080070
:102C4000ADF80A00ADF80C00ADF810000C20ADF89E
:102C50000E0001A9D048001FFEF7E3F90122402130
:102C6000CD48001FFEF777FA0121CB48001FFEF781
:102C700046FA06B010BD10B501210846FDF793FFD6
:102C8000C448FDF781FBC549C248FDF716FC012287
:102C90000221C048FDF747FC4FF40030FDF780FCEF
:102CA0000121BC48FDF734FC0121BB48001FFEF7A1
:102CB00026FA10BD10B504462146B748001FFEF79E
:102CC00086FA00BF4021B448001FFEF7D7FA00285B
:102CD000F8D010BD70B504460D46002605E02078FA
:102CE000FFF7E8FF641C701CC6B2AE42F7DB70BD94
:102CF00010B5A948001FFEF76EFAC4B2204606F0D0
:102D000090FB2021A448001FFEF7C1FA40F2255194
:102D1000A148001FFEF7E4FA10BD01E0411EC8B251
:102D20000028FBDC704710B54FF40030FDF725FCA0
:102D3000012834D14004FDF733FC06F0A1FB10BBA1
:102D400000219548001FFEF7DAF900224021924841
:102D5000001FFEF700FA00218E48FDF7D9FB0C207A
:102D60008C495839C865012240218B48001FFEF765
:102D7000F2F901218748FDF7CBFB01218648001FAE
:102D8000FEF7BDF90BE000218248FDF7C1FB0C20E6
:102D900080495839C86501217E48FDF7B9FB10BD4F
:102DA00010B500217B48FDF7B3FB0C207949583959
:102DB000C86501217748FDF7ABFB10BD08B54FF49E
:102DC000E060FDF773FA34208DF8000000208DF8E4
:102DD00001000B208DF8020001208DF803006846E9
:102DE000FDF769FA08BD10B586B004460121102030
:102DF000FDF7E6FE0121C804FDF7EFFE18208DF86F
:102E000017004FF48060ADF8140003208DF8160011
:102E100005A96548FDF73EFC04208DF81700400227
:102E2000ADF8140005A96048FDF734FC01940020BA
:102E3000ADF80800ADF80A00ADF80C00ADF81000D0
:102E40000C20ADF80E0001A95848FEF7EAF8012160
:102E50005648FEF754F95548008806B010BD10B525
:102E6000044621465148FEF7B2F900BF40214F48C1
:102E7000FEF704FA0028F9D010BD2DE9F047054609
:102E80000E461746984600242C46002C04DA2D20C6
:102E9000FFF7E5FF644202E02020FFF7E0FF42F287
:102EA000107094FBF0F00A2190FBF1F201FB12008C
:102EB000303000F0FF094846FFF7D1FF4FF47A7039
:102EC00094FBF0F00A2190FBF1F201FB120030308C
:102ED00000F0FF094846FFF7C2FF642094FBF0F0C2
:102EE0000A2190FBF1F201FB1200303000F0FF09E3
:102EF0004846FFF7B4FF0A2094FBF0F00A2190FB4C
:102F0000F1F201FB1200303000F0FF094846FFF7F4
:102F1000A6FF0A2094FBF0F100FB1140303000F0D6
:102F2000FF094846FFF79BFF2020FFF798FF344634
:102F3000002C04DA2D20FFF792FF644202E02020EB
:102F4000FFF78DFF42F2107094FBF0F00A2190FB26
:102F5000F1F201FB1200303000F0FF094846FFF7A4
:102F60007EFF4FF47A7094FBF0F00A2190FBF1F2AF
:102F700001FB1200303000F0FF094846FFF76FFFF9
:102F8000642094FBF0F00A2190FBF1F201FB1200A7
:102F900030300DE05800024004380140D4020020D7
:102FA000B4140020000C014000100140004C00400F
:102FB00000F0FF094846FFF752FF0A2094FBF0F0AB
:102FC0000A2190FBF1F201FB1200303000F0FF0902
:102FD0004846FFF744FF0A2094FBF0F100FB114044
:102FE000303000F0FF094846FFF739FF2020FFF797
:102FF00036FF3C46002C04DA2D20FFF730FF6442F8
:1030000002E02020FFF72BFF42F2107094FBF0F05B
:103010000A2190FBF1F201FB1200303000F0FF09B1
:103020004846FFF71CFF4FF47A7094FBF0F00A213A
:1030300090FBF1F201FB1200303000F0FF0948462E
:10304000FFF70DFF642094FBF0F00A2190FBF1F2F2
:1030500001FB1200303000F0FF094846FFF7FFFE89
:103060000A2094FBF0F00A2190FBF1F201FB120020
:10307000303000F0FF094846FFF7F1FE0A2094FBCC
:10308000F0F100FB1140303000F0FF094846FFF737
:10309000E6FE2020FFF7E3FE4446002C04DA2D2054
:1030A000FFF7DDFE644202E02020FFF7D8FE42F287
:1030B000107094FBF0F00A2190FBF1F201FB12007A
:1030C000303000F0FF094846FFF7C9FE4FF47A7030
:1030D00094FBF0F00A2190FBF1F201FB120030307A
:1030E00000F0FF094846FFF7BAFE642094FBF0F0B9
:1030F0000A2190FBF1F201FB1200303000F0FF09D1
:103100004846FFF7ACFE0A2094FBF0F00A2190FB42
:10311000F1F201FB1200303000F0FF094846FFF7E2
:103120009EFE0A2094FBF0F100FB1140303000F0CD
:10313000FF094846FFF793FE0D20FFF790FE0A2097
:10314000FFF78DFEBDE8F0872DE9F04105460E46FC
:10315000174698462CB2200A194948708C7034B230
:10316000200AC8700C713CB2200A48718C710FFAA9
:1031700088F4200AC8710C7200240DE01048015D2B
:103180001048FEF724F800BF40210E48FEF776F8FD
:103190000028F9D0601C04B20A2CEFDBBDE8F081F6
:1031A00070B504460D46E1B20648FEF710F800BFC0
:1031B0000448008810F0800FFAD0204670BD00004F
:1031C00014000020004C004030B5294800684FF43E
:1031D0007A72B0FBF2F1B1F1807F01D301201DE0E2
:1031E00021F07F40401E4FF0E022506150170F2227
:1031F000002807DA13071D0E1E4B00F00F04241FD2
:103200001D5503E013071C0E1B4B1C5400BF002070
:103210004FF0E022906107201061002008B100BF4C
:10322000FEE730BD014605E0002001E0421CD0B2BF
:103230000A28FBDB0A00A1F10101F5D1704701B5B5
:1032400003E04FF47A70FFF7EDFF0098411E009104
:103250000028F6D108BD0948006820B10748006879
:10326000401E06490860704770470548006870476F
:103270002CDB000818ED00E000E400E02C0000204A
:10328000280000201FB501210846FDF799FC2020E9
:10329000ADF80C0003208DF80E0048208DF80F00CB
:1032A00003A95948FDF7F6F905210220FDF7F6FAC2
:1032B0002020019000208DF808000C208DF80900D6
:1032C00001208DF80A0001A8FEF71AFA17208DF8E0
:1032D000000000208DF801000A208DF80200012076
:1032E0008DF803006846FCF7E6FF1FBD1FB50121FE
:1032F0000846FDF765FC4FF48070ADF80C00032024
:103300008DF80E0048208DF80F0003A93E48FDF708
:10331000C1F908210220FDF7C1FA4FF48070019035
:1033200000208DF808000C208DF8090001208DF890
:103330000A0001A8FEF7E4F917208DF8000000202C
:103340008DF8010003208DF8020001208DF80300A4
:103350006846FCF7B0FF1FBD1FB501210846FDF709
:103360002FFC4FF48050ADF80C0003208DF80E00B8
:1033700048208DF80F0003A92348FDF78BF90C2195
:103380000220FDF78BFA4FF48050019000208DF859
:1033900008000C208DF8090001208DF80A0001A812
:1033A000FEF7AEF928208DF8000000208DF801000E
:1033B00003208DF8020001208DF803006846FCF719
:1033C0007AFF1FBD10B52020FEF704FA30B104F0DB
:1033D00077FA0E4908702020FEF70DFA4FF480703E
:1033E000FEF7F8F940B101F0B5FB094800F065FFC0
:1033F0004FF48070FEF7FFF910BD10B54FF4805008
:10340000FEF7F9F910BD00000010014098010020FE
:103410007400002008B54FF4E060FCF747FF1C2063
:103420008DF8000000208DF8010002208DF80200C8
:1034300001208DF803006846FCF73DFF08BD08B584
:103440004FF4E060FCF732FF1D208DF800000020F3
:103450008DF8010003208DF8020001208DF8030093
:103460006846FCF728FF08BD08B501210420FDF7D8
:10347000A7FB0F20ADF8000048208DF80300694637
:10348000FE48FDF707F908BD08B501210820FDF742
:1034900097FB0320ADF8000048208DF80300694633
:1034A000F748FDF7F7F808BD00B587B00121022005
:1034B000FDF793FBF348FEF7A7F94FF6FF70ADF861
:1034C00014004720ADF810000020ADF81600ADF84C
:1034D000120004A9EB48FEF702FA0820ADF8040038
:1034E0000220ADF806000120ADF808000020ADF87C
:1034F0000A00ADF80C0001A9E248FEF7CCFB0C2055
:10350000ADF804000220ADF806000120ADF8080077
:103510000020ADF80A00ADF80C0001A9D948FEF76B
:10352000BAFB1921D748FEF73BFF0121D548FEF72A
:103530005CFC00221921D348FEF772FC07B000BDE5
:1035400000B587B001210846FDF747FB4FF08040EA
:10355000FEF75AF94FF6FF70ADF814004720ADF8AA
:1035600010000020ADF81600ADF8120004A94FF0CD
:103570008040FEF7B4F90020ADF804000220ADF859
:1035800006000120ADF808000020ADF80A00ADF8F3
:103590000C0001A94FF08040FEF77DFB0420ADF840
:1035A00004000220ADF806000120ADF8080000205C
:1035B000ADF80A00ADF80C0001A94FF08040FEF70D
:1035C0006AFB0820ADF804000220ADF806000120D7
:1035D000ADF808000020ADF80A00ADF80C0001A914
:1035E0004FF08040FEF757FB0C20ADF8040002209E
:1035F000ADF806000120ADF808000020ADF80A0083
:10360000ADF80C0001A94FF08040FEF744FB1F21EC
:103610004FF08040FEF7C4FE01218807FEF7E5FB6E
:1036200000221F214FF08040FEF7FAFB07B000BDDB
:1036300010B501218807FEF7B6FE002873D0924826
:10364000007810F0400F17D08F480078401C8E494A
:1036500008700846007800F00F0002280CDB80207C
:1036600008700020894908804FF08040008C20F0CD
:1036700002004FF0804108848548007810F0400F28
:1036800017D083480078401C8149087008460078AC
:1036900000F00F0002280CDB8020087000207D491C
:1036A00008804FF08040008C20F020004FF08041D7
:1036B00008847948007810F0400F17D076480078D9
:1036C000401C754908700846007800F00F00022879
:1036D0000CDB802008700020704908804FF080408B
:1036E000008C20F400704FF0804108846C48007812
:1036F00010F0400F17D06A480078401C68490870E5
:103700000846007800F00F0002280CDB80200870CB
:103710000020644908804FF08040008C20F4005065
:103720004FF08041088402214807FEF73CFE58B361
:103730005548007810F0400F27D08020524908707B
:10374000C005808E5149088008460088564909887E
:10375000884207DD4D48008853490988401A4B4983
:10376000088009E0504800884FF6FF71081A474961
:1037700009880844454908804FF08040008C20F0BB
:1037800002004FF08041088413E000203E49087099
:103790003E4908804FF08040808E43490880402099
:1037A000394908700006008C40F002004FF080415B
:1037B000088404210807FEF7F6FD58B33448007862
:1037C00010F0400F27D0802031490870C005008FCD
:1037D000304908800846008834490988884207DD56
:1037E0002C48008831490988401A2A49088009E094
:1037F0002E4800884FF6FF71081A264909880844A8
:10380000244908804FF08040008C20F020004FF0C9
:103810008041088413E000201D4908701D4908807C
:103820004FF08040008F21490880402018490870DF
:103830000006008C40F020004FF0804108840821F1
:10384000C806FEF7B0FDA8B31348007810F0400F8B
:1038500044D0802010490870C005808F0F4908802F
:103860000846008812490988884224DD0B480088F0
:103870000F490988401A0949088026E000080140DC
:10388000000C014000040040300000203C000020FB
:10389000310000203E0000203200002040000020C7
:1038A00033000020420000203400002036000020B9
:1038B0003800002026E0A54800884FF6FF71081A5E
:1038C000A34909880844A24908804FF08040008C31
:1038D00020F400704FF08041088413E000209D49DF
:1038E00008709B4908804FF08040808F974908807E
:1038F0004020984908700006008C40F400704FF09A
:103900008041088410218806FEF74DFD58B3924887
:10391000007810F0400F27D080208F4908708F4822
:1039200000888F490880084600888E4909888842A7
:1039300007DD8B4800888B490988401A8849088030
:1039400009E0884800884FF6FF71081A8449098801
:103950000844834908804FF08040008C20F40050D8
:103960004FF08041088414E000207B4908707C49B6
:1039700008807A4800887B4908804FF040007649EB
:1039800008704FF08040008C40F400504FF08041B0
:1039900008844FF01F014FF08040FEF701FD10BD7D
:1039A00010B501217048FEF7FEFCC8B36F480078DF
:1039B00010F0400F17D06D480078401C6B4908701C
:1039C0000846007800F00F0002280CDB8020087009
:1039D00000206749088064482030008820F4007087
:1039E0006149203108806348007810F0400F17D0FB
:1039F00060480078401C5F4908700846007800F075
:103A00000F0002280CDB8020087000205A49088033
:103A100055482030008820F4005053492031088058
:103A200008215148FEF7BFFC002842D04F480078DB
:103A300010F0400F28D080204C4908704A483C3094
:103A400000884B490880084600884C49098888420C
:103A500007DD4748008849490988401A44490880D9
:103A600009E0464800884FF6FF71081A4049098866
:103A700008443F4908803C482030008820F400700A
:103A800039492031088014E000203849087038494D
:103A9000088035483C300088384908804020334948
:103AA000087031482030008840F400702E492031E1
:103AB000088010212C48FEF776FC60B32D48007872
:103AC00010F0400F28D080202A4908702648403046
:103AD00000882949088008460088294909888842C1
:103AE00007DD2548008826490988401A22490880B0
:103AF00009E0234800884FF6FF71081A1E4909881B
:103B000008441D49088018482030008820F40050DF
:103B100015492031088014E0002016490870164924
:103B2000088011484030008815490880402011491C
:103B300008700D482030008840F400500A492031B8
:103B4000088019210848FEF72BFC10BD3800002022
:103B500040000020320000203300002040000040E0
:103B6000420000203A0000200004004044000020F1
:103B70004600002045000020480000204A000020A8
:103B80004C00002008B5012140F60400FDF718F8AC
:103B90004FF47060ADF8000018208DF8030003208A
:103BA0008DF8020069466948FCF774FD08BD08B548
:103BB000012142F21000FDF703F8C020ADF800002B
:103BC00018208DF8030003208DF802006946604834
:103BD000FCF760FD08BD30B587B04FF47A652C4620
:103BE00042F20F70ADF814001120ADF81000002063
:103BF000ADF81600ADF8120004A95648FDF76FFEA7
:103C00006020ADF800000120ADF80200ADF80650CC
:103C10000020ADF8080069464E48FDF779FE0821FE
:103C20004C48FEF713FA0120ADF80200ADF806404B
:103C300069464848FDF7A3FE08214648FEF70FFAFB
:103C400001214448FEF7D2F901214248FEF7D9F894
:103C500001214048FEF7C9F807B030BDF0B587B084
:103C60004FF47A673C462546264642F20F70ADF87F
:103C700014001120ADF810000020ADF81600ADF8CA
:103C8000120004A93448FDF72AFE6020ADF80000B8
:103C90000120ADF80200ADF806700020ADF8080074
:103CA00069462D48FDF734FE08212B48FEF7CEF972
:103CB0000120ADF80200ADF8064069462648FDF740
:103CC0005EFE08212448FEF7CAF90120ADF8020083
:103CD000ADF8065069462048FDF79BFE08211E48B6
:103CE000FEF7CAF90120ADF80200ADF8066069469A
:103CF0001948FDF7D6FE08211748FEF7C6F901213D
:103D00001548FEF773F901211348FEF77AF80121EF
:103D10001148FEF76AF807B0F0BD10B5FFF79EFF37
:103D200010BDF0B5DDE905458604360C0A4F343781
:103D30003E808E04360C3F1D3E809604360C3F1D9F
:103D40003E809E04360C3F1D3E80F0BD00080140C1
:103D50000010014000340140002C01401FB501213A
:103D60001420FCF72DFF1020ADF80C008DF80F008B
:103D700003208DF80E0003A9E448FCF78BFC10210A
:103D8000E248FCF734FD1020ADF80C008DF80F0070
:103D900003208DF80E0003A9DD48FCF77BFC102101
:103DA000DB48FCF722FDFEF737FD1021D748FCF772
:103DB0001EFD1021D648FCF718FD01210846FCF72E
:103DC000FFFE2020ADF80C0003208DF80E004820E7
:103DD0008DF80F0003A9CD48FCF75CFC05210220FB
:103DE000FCF75CFD2020019000208DF808000C20DD
:103DF0008DF8090001208DF80A0001A8FDF780FC6C
:103E000017208DF8000000208DF8010004208DF8A7
:103E1000020001208DF803006846FCF74CFA1FBD34
:103E200070B505460C461021B948FCF7E0FC284661
:103E3000FEF78DFD06462046FEF789FD1021B448A9
:103E4000FCF7D3FC304670BD70B504461021B04875
:103E5000FCF7CDFC2046FEF77AFD0020FEF777FD4B
:103E600005461021AA48FCF7C0FC284670BD2DE984
:103E7000F04107460D4616461021A548FCF7B7FC51
:103E80003846FEF764FD8046002404E0285DFEF716
:103E90005EFD601CC4B2B442F8DB10219C48FCF704
:103EA000A4FC4046BDE8F0812DE9F04107460D46EF
:103EB000164610219648FCF79AFC3846FEF747FD57
:103EC0008046002405E00020FEF741FD2855601CD7
:103ED000C4B2B442F7DB10218D48FCF786FC4046A3
:103EE000BDE8F08170B504460D4610218748FCF707
:103EF0007EFC2A462146A020FFF7B9FF1021834807
:103F0000FCF773FC70BD70B504460D4610217F4868
:103F1000FCF76DFC2A462146A820FFF7A8FF1021D8
:103F20007A48FCF762FC70BD70B504460720FFF7C5
:103F30008BFF054629462720FFF772FF15F0400F3B
:103F40000AD0202221466120FFF7AEFFFF21E220A8
:103F5000FFF766FF002070BD0120FCE71CB50522BD
:103F60006C493020FFF783FF052269461020FFF7D8
:103F70009BFF002408E01DF804006649095D8842A3
:103F800000D003E0601CC4B2052CF4DB00BF052C9C
:103F900001D101201CBD0020FCE770B504460D4690
:103FA000FFF7DCFEFEF738FC10215848FCF71FFC39
:103FB000052259492A20FFF75AFF0522554930208A
:103FC000FFF755FF00212120FFF72AFF01212220C2
:103FD000FFF726FF00212420FFF722FF2946252096
:103FE000FFF71EFF0F212620FFF71AFF7021272061
:103FF000FFF716FF012C10D120213120FFF710FF11
:10400000FF21E120FFF70CFFFF21E220FFF708FF6F
:104010000F212020FFF704FF49E0022C10D1FF21DF
:10402000E220FFF7FDFEFF21E120FFF7F9FE20214E
:104030003120FFF7F5FE3E212020FFF7F1FE36E0AC
:10404000032C1AD1FF21E120FFF7EAFEFF21E22035
:10405000FFF7E6FE0F212020FFF7E2FE5020FEF7DB
:1040600076FC7320FEF773FC01213C20FFF7D8FE9D
:1040700007213D20FFF7D4FE19E00E212020FFF795
:10408000CFFEFF21E120FFF7CBFEFF21E220FFF76B
:10409000C7FE5020FEF75BFC7320FEF758FC0121A1
:1040A0003C20FFF7BDFE07213D20FFF7B9FE1021A0
:1040B0001648FCF79AFB70BD10B510211348FCF7A9
:1040C00096FB3E212020FFF7ABFE10210F48FCF7A6
:1040D0008CFB10BD10B5002403E00720FFF7B4FEF1
:1040E000044614F0200FF8D010210848FCF77FFB9D
:1040F00021462720FFF794FE3F212020FFF790FE66
:1041000010210248FCF771FB10BD000000100140B7
:10411000000801404E0000205300002070B5044606
:104120000D46002605F0D2FA06462A4621463C20D6
:10413000FEF714FA304605F0CDFA70BD70B50446AE
:104140005525002605F0C2FA064621463C20FEF71A
:1041500080FA0546304605F0BDFA284670BD2DE9C7
:10416000F04104460D461646002705F0AFFA074613
:1041700033462A4621463C20FEF7D0FA384605F061
:10418000A9FABDE8F08108B503220A216846FFF7C5
:10419000E6FF9DF80010FEA007F0F6FE9DF8011066
:1041A000FBA007F0F1FE9DF80210F9A007F0ECFE6D
:1041B0009DF80000482815D19DF80100342811D140
:1041C0009DF8020033280DD178210020FFF7A6FFCB
:1041D00020210120FFF7A2FF00210220FFF79EFF10
:1041E000012008BD0020FCE72DE9FC410446142114
:1041F0000020FFF793FF01210220FFF78FFF0A2025
:10420000FFF71DF80320FFF799FF8DF80000042049
:10421000FFF794FF8DF801000520FFF78FFF8DF861
:1042200002000620FFF78AFF8DF803000720FFF742
:1042300085FF8DF804000820FFF780FF8DF805004A
:104240009DF801009DF8001040EA0120D44909883A
:10425000084400B220809DF805009DF8041040EA53
:10426000012000B2CE49B1F902104518284607F0E6
:1042700097FB8046CB480168404607F093F9074614
:10428000C94907F0C5F9064607F0B6FB054628B24E
:1042900060809DF803009DF8021040EA012000B202
:1042A000A080BDE8FC8110B514210020FFF736FF87
:1042B00000210220FFF732FF10BD2DE9FC4104462A
:1042C000002505F003FA05460623032269463C2033
:1042D000FEF724FA284605F0FDF99DF801109DF837
:1042E000002041EA022109B2AD4AB2F90020881843
:1042F00007F056FB0746AD480168384607F052F90B
:10430000064607F079FB00B220809DF805109DF865
:10431000042041EA022109B2A14AB2F90220881818
:1043200007F03EFB07469F480168384607F03AF918
:10433000064607F061FB00B260809DF803109DF80F
:10434000022041EA022109B2954AB2F904208818F4
:1043500007F026FB074696480168384607F022F921
:10436000064607F049FB00B2A080BDE8FC812DE9BC
:10437000F0478CB0002500260027A846A946AA468B
:104380003220FEF75CFF61210020FFF7C7FE01210C
:104390000220FFF7C3FE0A20FEF751FF00245FE072
:1043A00001210220FFF7BAFE0A20FEF748FF032092
:1043B000FFF7C4FE8DF828000420FFF7BFFE8DF83C
:1043C00029000520FFF7BAFE8DF82A000620FFF726
:1043D000B5FE8DF82B000720FFF7B0FE8DF82C00FE
:1043E0000820FFF7ABFE8DF82D009DF829009DF801
:1043F000281040EA01200FFA80F89DF82B009DF864
:104400002A1040EA01200FFA80F99DF82D009DF84E
:104410002C1040EA01200FFA80FA53464A464146E2
:1044200064A007F0B1FD9DF829009DF8281040EA2E
:10443000012005449DF82B009DF82A1040EA012038
:1044400007449DF82D009DF82C1040EA01200644F9
:104450003B463246294661A007F096FD601CC4B277
:104460000A2C9DDB12210020FFF758FE002450E0AB
:1044700001210220FFF752FE0A20FEF7E0FE032092
:10448000FFF75CFE8DF828000420FFF757FE8DF83B
:1044900029000520FFF752FE8DF82A000620FFF7BD
:1044A0004DFE8DF82B000720FFF748FE8DF82C00FD
:1044B0000820FFF743FE8DF82D009DF829009DF898
:1044C000281040EA01200FFA80F89DF82B009DF893
:1044D0002A1040EA01200FFA80F99DF82D009DF87E
:1044E0002C1040EA01200FFA80FA53464A46414612
:1044F00030A007F049FDA5EB0805A7EB0907A6EBDF
:104500000A063B46324629463FA007F03DFD601CA7
:10451000C4B20A2CACDB284607F050FA02460B4620
:10452000CDE906014FF0FF30424907F0CAF921F00A
:104530000041CDE9080107F0FFFA1C490860304648
:1045400007F03CFA02460B46CDE906014FF0FF307A
:10455000384907F0B6F921F00041CDE9080107F02C
:10456000EBFA10490860384607F028FA02460B4675
:10457000CDE906010020304907F0A3F921F0004100
:10458000CDE9080107F0D8FA09490860084655E066
:10459000484D43353838335F49443D25780D0A008E
:1045A000600000206C00002000401C4668000020D5
:1045B00070000020484D43353838334C3A0968784C
:1045C0003A202534642C0968793A202534642C0972
:1045D000687A3A202534640A0D000000484D4335BE
:1045E0003838334C3A095431783A202535642C094F
:1045F0005431793A202535642C0954317A3A2025F2
:1046000035640A0D00000000484D43353838334CFE
:104610003A095432783A202535642C095432793AD3
:10462000202535642C0954327A3A202535640A0D48
:1046300000000000FFB1D84000FED640006807F03F
:1046400040FACDE908017348006807F03AFACDE96D
:1046500006017148006807F034FACDE90401DDE98C
:104660000801CDE90201DDE90601CDE900016BA0F9
:10467000DDE9042307F088FC0CB0BDE8F087F0B555
:1046800087B0734803C8CDE903017149083103C9F4
:10469000CDE90101002763E068210020FFF73EFD1E
:1046A00001210220FFF73AFD0A20FEF7C8FD032092
:1046B000FFF744FD8DF814000420FFF73FFD8DF84F
:1046C00015000520FFF73AFD8DF816000620FFF7CC
:1046D00035FD8DF817000720FFF730FD8DF8180025
:1046E0000820FFF72BFD8DF819009DF815009DF8A7
:1046F000141040EA012004B29DF819009DF818102A
:1047000040EA012005B29DF817009DF8161040EA16
:10471000012006B2BDF90C00A04201DAADF80C4050
:10472000BDF90E00A84201DAADF80E50BDF9100037
:10473000B04201DAADF81060BDF90400A04201DD1D
:10474000ADF80440BDF90600A84201DDADF8065001
:10475000BDF90800B04201DDADF80860781C87B2F1
:10476000B7F57A7F98DBBDF90C00BDF90410084459
:104770004010404200B237490880BDF90E00BDF933
:10478000061008444010404200B232494880BDF94A
:104790001000BDF9081008444010404200B22D49F5
:1047A000888007B0F0BD2DE9FF5F8246DAF800008F
:1047B0000390DAF8040002902749039807F0E2F921
:1047C00004D22649039806F0E7FE03902249029896
:1047D00007F0D8F904D22149029806F0DDFE0290D4
:1047E000039807F06EF9CDE90001029807F069F926
:1047F0000646DDE9002308F07FFE0446184A194BFF
:1048000006F046FF804607F097F98346CAF80CB0D9
:10481000BDE8FF9F6C00002068000020484D433534
:104820003838334C3A094741494E5F583A202534CD
:10483000662C094741494E5F593A202534662C09B8
:104840004741494E5F5A3A202534660A0D00000060
:1048500040DB00086000002000FEFF4600FF7F47AD
:104860007FBDC282FB21094008B501211C20FCF755
:10487000A7F90E20ADF8000010208DF803000120EC
:104880008DF8020069464A48FBF704FF0E214848AC
:10489000FBF7ABFF4FF48050ADF8000010208DF80F
:1048A000030001208DF8020069464248FBF7F2FE42
:1048B0004FF480513F48FBF798FF2020ADF80000EF
:1048C00010208DF8030001208DF8020069463A4857
:1048D000FBF7E0FE20213848FBF787FF4FF400602C
:1048E000ADF8000048208DF8030001208DF802008B
:1048F00069463148FBF7CEFE08BD10B50446062CCC
:1049000052D2DFE804F0510312213042022128483C
:10491000FBF75EFF20B102212548FBF768FF03E0AB
:1049200002212348FBF761FF3FE004212048FBF709
:104930004FFF20B104211E48FBF759FF03E004217B
:104940001B48FBF752FF30E008211948FBF740FFF6
:1049500020B108211648FBF74AFF03E0082114485C
:10496000FBF743FF21E04FF480511248FBF730FF83
:1049700028B14FF480510F48FBF739FF04E04FF4A2
:1049800080510C48FBF731FF0FE020210A48FBF76C
:104990001FFF20B120210848FBF729FF03E0202159
:1049A0000548FBF722FF00E000BF00BF10BD00007C
:1049B0000010014000080140000C014070B50446A1
:1049C0000D46002604F082FE06462A462146D020E7
:1049D000FDF7C4FD304604F07DFE70BD70B50446A1
:1049E0000025552604F072FE05462146D020FDF72D
:1049F00030FE0646284604F06DFE304670BD2DE9B7
:104A0000F04104460D461646002704F05FFE0746B7
:104A100033462A462146D020FDF780FE384604F072
:104A200059FEBDE8F08170B504462046FFF7D6FF79
:104A30000546611CC8B2FFF7D1FF064606EB05200C
:104A400000B270BD7FB504460D4616460E223B21CE
:104A50006846FFF7D4FF9DF801009DF8001000EBB9
:104A6000012000B228809DF803009DF8021000EBA1
:104A7000012000B268809DF805009DF8041000EB4D
:104A8000012000B2A8809DF807009DF8061000EBF9
:104A9000012000B230809DF809009DF8081000EB5D
:104AA000012000B220809DF80B009DF80A1000EB59
:104AB000012000B260809DF80D009DF80C1000EB05
:104AC000012000B2A0807FBD08B501227521684693
:104AD000FFF795FF0A20FEF7B2FB00216B20FFF7DE
:104AE0006DFF0A20FEF7ABFB03211920FFF766FFDD
:104AF0000A20FEF7A4FB03211A20FFF75FFF0A201C
:104B0000FEF79DFB18211B20FFF758FF0A20FEF738
:104B100096FB08211C20FFF751FF0A20FEF78FFBB0
:104B200092213720FFF74AFF0A20FEF788FB012178
:104B30003820FFF743FF0A20FEF781FB00216A209F
:104B4000FFF73CFF9DF80000682801D0002008BD59
:104B50000120FCE710B5034A03490448FFF772FF40
:104B600010BD000088000020820000207C00002092
:104B70000EB5002405E0012300221146104606F080
:104B800049FAFD4800780128F5D100230222194690
:104B9000184606F03FFAFFF761F815E002AA642113
:104BA000F648006806F07BFBF54A5168106803F090
:104BB00047FB0446F3480088CDE90004F248036847
:104BC000EF4807C803F0A6F9E8E719E004F00CFC89
:104BD000EE49B1F9000006F0E3FE0446EC498A68AC
:104BE0002146104601F07EFFEA49886003F03AFE54
:104BF00003F0FEFE642300221146104606F00AFA76
:104C0000E4E71FB505E0012300221146104606F037
:104C100001FAE14800780028F5D00A230022114665
:104C2000104606F0F7F9DD48FFF747FB0120DC49A5
:104C3000087021E0D949B1F9000006F0B1FE0090FA
:104C4000D649B1F9020006F0ABFE01906846FFF7C5
:104C5000AAFD039806F035FF0646D24AD24B06F06D
:104C6000BEFD044606F014FFCC49C8800F23002285
:104C70001146104606F0CEF9DCE767E006F04DFA83
:104C80000446CA48007828B900F040FC10B9012059
:104C9000C6490870C648007828B900F0D4FC10B99D
:104CA0000120C3490870C248007800283DD0BF48A1
:104CB0000078002839D00120B7490870B84800783A
:104CC000012832D103F090FE03F01EFCB9480178B0
:104CD0000078401CB74A1070092906D100201146FF
:104CE0000870B548006806F089FBA448006806F023
:104CF00085FB0120A0490870B0480078012809DD33
:104D00000821AF48FBF773FDAC480078401EAB4963
:104D100008700AE0A9480078012806D10821A848AF
:104D2000FBF763FD0020A549087006F0F6F9A042E4
:104D300006D1042300221146104606F06BF905E067
:104D4000032300221146104606F064F996E700247A
:104D500047E09C480078072833D2DFE800F0040ED3
:104D6000181D1E232E004FF480519748FBF73DFD80
:104D700004219348FBF739FD23E04FF4805192481A
:104D8000FBF735FD04218E48FBF72FFD19E00421C8
:104D90008B48FBF72AFD14E013E004218848FBF759
:104DA00026FD0EE0E11704EB91718910B4EB81014F
:104DB00002D10220FFF7A1FD03E00220FFF79DFDD5
:104DC00000BF00BF2046611CCCB20A2803D10024DA
:104DD0000120FFF792FD322300221146104606F013
:104DE00019F9B6E708B54FE078480088401C7749C4
:104DF00008807748007830B100207549087004F0C9
:104E000050FB03F033FF714800880A2836DB00208E
:104E10006E4908806F48007820B100206D49087005
:104E2000FDF7BEFF80206C4988700020C8705520B7
:104E30000870AA2048700C216748FDF74BFF6748AF
:104E400000880A2190FBF1F004B24FF07E5300225B
:104E50006348009401686348006803F015FF6248E6
:104E6000006860490860614800685D490860042383
:104E700000221146104606F0CDF805E00523002279
:104E80001146104606F0C6F8AEE71F214FF08040ED
:104E9000FDF786FA01221F219007FCF7C1FF1921B7
:104EA0005348FDF77DFA012219215148FCF7B8FF5C
:104EB00007E004F0E1F9142300221146104606F041
:104EC000A9F8F6E788B000200690FFF747F830B958
:104ED00000204849087048A007F056F805E04BA0AC
:104EE00007F052F801204349087031E207AA4FF455
:104EF0007A713148006806F0D2F93E4800780028FF
:104F000034D047480078002831D000204449087048
:104F100002F095FF06900698552829D006DC112846
:104F20000BD0222825D0442824D1CAE0662822D0DC
:104F300077287DD08828F7D170E13A4880693A49CE
:104F4000009006F02FFB019006F056FD05903548C5
:104F500080683649009006F025FB019006F04CFD74
:104F60000490304840683149009062E0D4E1C5E1E6
:104F7000D7E076E082E104E18E000020A40000206A
:104F8000B4120020F8010020FC0100205E02002085
:104F900044120020681200208C00002074000020C1
:104FA0008F000020FBEB1516DCA54C409A0000207A
:104FB0009B0000208D000020A00000209C0000200D
:104FC00000100140F401002000080140980000207A
:104FD0006802002069020020C01400205C0200204A
:104FE0009400002090000020280100202C010020C7
:104FF000000400409D0000206469646E27742066F0
:10500000696E642032344C303100000032344C3050
:1050100031206861766520666F756E642E00000031
:1050200098010020E41300200000204100401C46AD
:10503000D7E006F0B7FA019006F0DEFC0390FE48D8
:105040000068FE49009006F0ADFA019006F0D4FC2D
:10505000029005980090112002A90EC902F016FDD9
:105060003CE1F7488069F749009006F09BFA01900F
:1050700006F0C2FC0590F2488068F349009006F003
:1050800091FA019006F0B8FC0490ED484068EE49B2
:10509000009006F087FA019006F0AEFC0390E84815
:1050A0000068E649009006F07DFA019006F0A4FC45
:1050B000029005980090222002A90EC902F0E6FC99
:1050C0000CE1E2488069DF49009006F06BFA01903C
:1050D00006F092FC0590DD488068DB49009006F000
:1050E00061FA019006F088FC0490D8484068D649DF
:1050F000009006F057FA019006F07EFC0390D3482A
:105100000068CE49009006F04DFA019006F074FC5C
:10511000029005980090442002A90EC902F0B6FC46
:10512000DCE0CB488069C749009006F03BFA01906B
:1051300006F062FC0590C6488068C349009006F0FE
:1051400031FA019006F058FC0490C1484068BE490D
:10515000009006F027FA019006F04EFC0390BC4840
:105160000068B649009006F01DFA019006F044FC74
:10517000029005980090552002A90EC902F086FC05
:10518000ACE0B4488069AF49009006F00BFA01909A
:1051900006F032FC0590AF488068AB49009006F0FD
:1051A00001FA019006F028FC0490AA484068A6493C
:1051B000009006F0F7F9019006F01EFC0390A54858
:1051C00000689E49009006F0EDF9019006F014FC8D
:1051D000029005980090662002A90EC902F056FCC4
:1051E0007CE09D4800689549029006F0DBF9039049
:1051F00006F002FC0590994800689049029006F07C
:10520000D1F9039006F0F8FB0490002003460090CB
:105210007720DDE9041202F039FC5FE090488069F4
:105220008849009006F0BEF9019006F0E5FB059074
:105230008B4880688449009006F0B4F9019006F02C
:10524000DBFB0490864840687F49009006F0AAF98D
:10525000019006F0D1FB03908148006877490090E7
:1052600006F0A0F9019006F0C7FB029005980090A7
:10527000882002A90EC902F009FC2FE07848406896
:105280007149009006F08EF9019006F0B5FB05908B
:10529000734800686949009006F084F9019006F0AF
:1052A000ABFB04906C4800686449009006F07AF902
:1052B000019006F0A1FB0390684800685F490090E8
:1052C00006F070F9019006F097FB029005980090A7
:1052D000012002A90EC902F0D9FB00BF00BF2021A6
:1052E0006048FBF784FAC82300221146104605F0F7
:1052F00091FE20215B48FBF778FA29E05A480078B4
:1053000000905A4803885A4802885A48B0F9001059
:10531000FF2002F0BBFB1BE05748806A039006F0B9
:105320006BFB05905448406A039006F065FB0490BF
:10533000524800880346039051480278DDE9040191
:10534000FDF702FF4F48007810B100204D4908706A
:10535000CCE570B5064600250024002005F019FFB5
:1053600049490860002005F014FF484908604FF4DF
:105370007A70FDF764FF02F07DFD03F001FC04F09C
:10538000A5F905460A23424A0021AFF2C74005F0BD
:10539000CAFA05233F4A0021AFF2115005F0C3FAC3
:1053A00002213D48FBF723FA3CA006F0EDFD4FF447
:1053B0007A70FDF744FF02213748FBF716FA00BF69
:1053C000FFF782FB04464FF4FA70FDF738FF012C1B
:1053D000F6D138A006F0D8FD02212F48FBF707FAD6
:1053E00000BFFEF7D0FE04464FF4FA70FDF727FF2A
:1053F000012CF6D102212848FBF7F7F90423334AA0
:105400000021AFF21F6005F08EFA0B23304A002115
:10541000AFF2C56005F087FA06232E4A0021AFF2ED
:10542000A57005F080FA07232B4A0021AFF62D0066
:1054300005F079FA092351E0E413002000007A44D2
:10544000241300200000204100401C46641300206B
:10545000A413002004140020EC010020E40100202B
:1054600004130020000C014004020020F801002079
:105470005C0200205C01002030140020400200206B
:105480005E00002098010020A0000020A400002061
:10549000A00A0020000F0020001001400D0A204645
:1054A00043552056312E3020496E69742E2E2E2001
:1054B0000D0A00004D505520496E697420537563E4
:1054C000636565646564210D0A00000064050020C1
:1054D000D40300206009002080110020094A002127
:1054E000AFF6191005F01FFA0823074A0021AFF69E
:1054F0007F1005F018FA032005F092FC284604F00E
:10550000E9F870BD40100020C00D002070B5FE49C4
:10551000B1F9000006F044FAFC490860FA49B1F913
:10552000020006F03DFAF9494860F749B1F9040074
:1055300006F036FAF54988600868F54906F022FB5E
:105540001DD3F2490868F34906F012FB17D3EF495F
:105550004868EF4906F016FB11D3EC494868ED495D
:1055600006F006FB0BD3E9498868E94906F00AFB17
:1055700005D3E6498868E74906F0FAFA01D2012026
:1055800070BDE548006806F00BFA0546DF48016883
:10559000284605F0AFFF044606F02EFADE49086003
:1055A000DE48006806F0FCF90546D8484168284600
:1055B00005F0A0FF044606F01FFAD8490860D84855
:1055C000006806F0EDF90546D0488168284605F0E8
:1055D00091FF044606F010FAD1490860D1480088CE
:1055E000401CD049088008460088642829D1CA4850
:1055F0000068098890FBF1F4204606F0D1F9CA4909
:105600000860C6480068C749098890FBF1F4204645
:1056100006F0C6F9C4494860C1480068C149098814
:1056200090FBF1F4204606F0BBF9BF4988600020EA
:10563000B9490860B9490860B9490860B9490880A2
:105640009EE701209CE770B5B849B1F9000006F06B
:10565000A7F9B7490860B549B1F9020006F0A0F909
:10566000B3494860B149B1F9040006F099F9B0496D
:1056700088600868AF4906F085FA11D3AC4908681C
:10568000AD4906F075FA0BD3A9494868A94906F057
:1056900079FA05D3A6494868A74906F069FA01D204
:1056A000012070BDA548006806F07AF90546A048BB
:1056B0000168284605F01EFF044606F09DF99F4943
:1056C00008609F48006806F06BF9054698484168F5
:1056D000284605F00FFF044606F08EF99849086049
:1056E0009848006806F05CF90546914881682846AC
:1056F00005F000FF044606F07FF9924908609248E1
:105700000088401C9049088008460088642827D1FA
:105710008A480068098890FBF1F4204606F040F9B9
:105720008A490860864800688749098890FBF1F437
:10573000204606F035F9854948608248006882496C
:10574000098890FBF1F000B28149088000207B4974
:1057500008607B4908607B4908607B490880A0E7B6
:1057600001209EE72DE9FF4F91B0054616461C46E5
:10577000DDE91E7803F0CDFC4146404605F012FFFE
:1057800039460690384605F00DFF21460490204624
:1057900005F008FF0390049905F0ACFE059006990A
:1057A00005F0A8FE079006F08CF9CDE9080108F095
:1057B00097F9CDE90A0106F0BFF90F9020460F993D
:1057C00005F026FF044638460F9905F021FF0746ED
:1057D00040460F9905F01CFF80465E4880680E9099
:1057E0005C4840690D905B48006A0C9040460D99FA
:1057F00005F0D8FE0B9038460C9905F0D3FE0A90C0
:105800000B9905F0C9FE814620460C9905F0CAFEA9
:105810000B9040460E9905F0C5FE0A900B9905F0D5
:10582000BBFE824638460E9905F0BCFE0B90204622
:105830000D9905F0B7FE0A900B9905F0ADFE834671
:105840004549484605F0AEFE0B90444801680B9868
:1058500005F050FE414908603F49504605F0A2FE60
:105860000B903F4801680B9805F044FE3C490860E6
:105870003949584605F096FE0B903A4801680B9856
:1058800005F038FE374908604946374805F08AFE7A
:1058900029460A9005F02EFE0B90304801680B98BF
:1058A00005F028FE054651462F4805F07BFE0A907C
:1058B000129905F01FFE0B90294801680B9805F01E
:1058C00019FE12905946284805F06CFE31460A90A0
:1058D00005F010FE0B90234801680B9805F00AFEB6
:1058E00006462249C868314605F05CFE1F4909900A
:1058F0008868129905F056FE07901C48406880F0B1
:1059000000402946059033E07C000020141200205E
:105910000000FA430000FAC3F4000020F800002061
:10592000FC000020F0000020A800002082000020E1
:105930002C12002000007A4400007AC404010020E8
:10594000080100200C01002000010020901100201F
:10595000B4000020781400206F12833AD400002095
:10596000D8000020DC000020CDCC4C3F30020020CD
:1059700005F018FE0690079905F00EFE08900999AB
:1059800005F00AFEFE490A9005F00CFE0B90FD485A
:1059900001680B9805F0AEFDFA490860C8681299D5
:1059A00005F000FEF74909908868314605F0FAFDD8
:1059B0000790F4480168284605F0F4FD0690079921
:1059C00005F098FD0890099905F0E6FDEC490A906C
:1059D00005F0E8FD0B90EB4841680B9805F08AFD57
:1059E000E84948600846C168284605F0DBFDE549FE
:1059F00009904868314605F0D5FDE24907900868EE
:105A0000129905F0CFFD0690079905F0C5FD0890A5
:105A1000099905F06FFDDA490A9005F0C3FD0B9076
:105A2000D84881680B9805F065FDD649886008461E
:105A30008168284605F0B6FDD24909904868129958
:105A400005F0B0FDCF4907900868314605F0AAFD82
:105A50000690079905F04EFD0890099905F09CFD08
:105A6000C7490A9005F09EFD0B90C648C1680B9887
:105A700005F040FDC349C8600A46D168D06805F00A
:105A800091FDC04A06909168906805F08BFDBD4A73
:105A900004905168506805F085FDBA4A029011687B
:105AA000106805F07FFD0190029905F023FD039039
:105AB000049905F01FFD0590069905F01BFD079060
:105AC00005F0FFFFCDE9080108F00AF8CDE90A0169
:105AD00006F032F80F90AB4908680F9905F098FD71
